:0400000047EF00F0D6
:100008005A82FACF4DF0FBCF4EF0D9CF4FF0DACF6E
:1000180050F0F3CF51F0F4CF52F0F6CF53F0F7CFC2
:1000280054F0F8CF55F0F5CF56F0F2AC1EEF00F0D3
:1000380020EF00F031EF00F00E01C1A326EF00F031
:1000480028EF00F031EF00F0C9A32DEF00F02FEFFB
:1000580000F031EF00F087EC0CF056C0F5FF55C00A
:10006800F8FF54C0F7FF53C0F6FF52C0F4FF51C069
:10007800F3FF50C0DAFF4FC0D9FF4EC0FBFF4DC0A1
:0A008800FAFF5A92110067EF0DF025
:100F0000005C1C00301C00221C005412005614000F
:100F1000521C00AE16009E1C00961C008E1C008603
:100F20001C007E1C00761C006E1C00481C00DE1796
:100F30000001000A006400E803102768616C6C205F
:100F400073656E736F722072656164696E672031BC
:100F50003A202575200A0D0073656E736F7220723A
:100F6000656164696E673A202575200A0D00546535
:100F70006D702072656164696E673A202569200A88
:030F80000D000061
:100F8400430E476E8AEF08F0250E4B18D8B4CDEF08
:100F940007F0CFEF07F0D4EF07F04B501FEC0EF043
:100FA4008AEF08F0000E486EDBEF07F0488CFAEF8A
:100FB40007F0422A4204456E45C0F6FF0F0EF76E55
:100FC400000EF86E0800F5CF4BF04B50000AD8B471
:100FD4009EEF08F0640AD8B4FAEF07F00D0AD8B40B
:100FE400FAEF07F01C0AD8B4D8EF07F08AEF08F03C
:100FF40048BCFFEF07F001EF08F019EF08F0475085
:10100400D96EDA6ADECF49F0DDCF4AF0020E472608
:101014004ABE11EF08F00FEF08F022EF08F0030EBC
:101024004812496C4A1ED8B04A2A22EF08F04750A9
:10103400D96EDA6ADECF49F0DDCF4AF0020E4726D8
:10104400010E4B6E4B50020DF350310F456E45C0EF
:10105400F6FF0F0EF76E000EF86E0900F550495CAE
:101064000900F5504A58D8B03AEF08F03CEF08F0C0
:101074003EEF08F048EF08F04B2A050E4B18D8A4B1
:1010840046EF08F048EF08F024EF08F048C045F0B8
:10109400030E4516D8B451EF08F053EF08F056EF9D
:1010A40008F02D0E1FEC0EF04BC046F081EF08F057
:1010B4004650020DF350310F456E45C0F6FF0F0E3A
:1010C400F76E000EF86E0900F5CF38F00A00F5CF80
:1010D40039F049C036F04AC037F0B0EC0AF036C0F7
:1010E4003DF037C03EF0000E406E0A0E3F6E8BECB2
:1010F4000BF03D50300F4B6E4B501FEC0EF046067C
:101104004628D8A488EF08F08AEF08F05AEF08F0D0
:10111400422A4204456E45C0F6FF0F0EF76E000EDC
:10112400F86E0800F5CF4BF04B50D8A49CEF08F0B4
:101134009EEF08F0C6EF07F0120077EC0DF05FECBD
:101144000EF0D6EC0DF01AEC0CF0F28EF28C84B8A2
:10115400AEEF08F0B1EF08F0010EB2EF08F0000EA8
:10116400FF0A00016C6F6C3B84506C19EF0B6C1917
:10117400846E030E00016D6F8A0E6C6F550EE82E9F
:10118400FED76C2FFCD76D2FFAD700D084B8CDEFE3
:1011940008F0D0EF08F0010ED1EF08F0000EFF0ABE
:1011A40000016C6F6C3B84506C19EF0B6C19846EEE
:1011B400030E00016D6F8A0E6C6F550EE82EFED77C
:1011C4006C2FFCD76D2FFAD700D0120E0001696F77
:1011D400130E6A6F000E6B6FF5EC0DF084B8F5EF2B
:1011E40008F0F8EF08F0010EF9EF08F0000EFF0A1E
:1011F40000016C6F6C3B84506C19EF0B6C19846E9E
:10120400410E00016C6FEE0EE82EFED76C2FFCD75A
:10121400000084B810EF09F013EF09F0010E14EF89
:1012240009F0000EFF0A00016C6F6C3B84506C19CE
:10123400EF0B6C19846E410E00016C6FEE0EE82EFC
:10124400FED76C2FFCD70000F0EF08F047EF00F05A
:10125400E1EC0DF00009D8B432EF09F034EF09F0F5
:1012640067EF09F042EF09F04FEC0EF088EF09F058
:101274004BEC0EF088EF09F043EC0EF088EF09F028
:1012840019C041F01AC042F020EE0AF002D855EF1E
:1012940009F00500FA6EDE50FD6EDE50FE6EDE5083
:1012A400FF6EFA501200010AD8B43EEF09F0030AA7
:1012B400D8B436EF09F0010AD8B43AEF09F0070AB6
:1012C400D8B43EEF09F03EEF09F02A9024C0D9FFCC
:1012D40025C0DAFF244A252ADF5053EC0EF02606F7
:1012E400D8A0270626502710D8A47BEF09F07DEF5D
:1012F40009F083EF09F0000E386E060E376E87EFA3
:1013040009F0000E386E030E376E37501200010ECE
:101314002B26000E2C222D222E222E502D100BE1D6
:10132400E80E2B5C030E2C58D8A09BEF09F09DEF20
:1013340009F0DAEF09F0000E416E4C0E74EC0AF07D
:101344004C6E4C50316E326A0E0E416E360E74EC99
:101354000AF0346E0F0E416E360E74EC0AF0336EE2
:101364002FEC0DF00009D8B4BAEF09F0BCEF09F086
:10137400D2EF09F0580E426E34C043F0446AC2EC16
:1013840007F03B0E426E33C043F0446AC2EC07F0F0
:101394006E0E426E31C043F032C044F0C2EC07F02E
:1013A400E80E2B5E030E2C5A000E2D5A000E2E5AF8
:1013B4001200366E010E376E2AB4E3EF09F0E5EF42
:1013C40009F029EF0AF036C023F02A922A842A90E1
:1013D4000E0E286E010E226EF40E216E2A86060E63
:1013E400016E1D0E026E000E036E000E136E000ED3
:1013F400146E060E046E1D0E056E000E066E000EB3
:10140400156E000E166E060E076E1D0E086E000E8B
:10141400096E000E176E000E186E060E0A6E1D0E73
:101424000B6E000E0C6E000E196E000E1A6E020E7C
:101434000D6E1D0E0E6E000E0F6E000E1B6E000E56
:101444001C6E7AEC0EF044EC0DF0000E376E375043
:10145400120065EC0EF024C0D9FF25C0DAFFDF6E60
:10146400244A252A2606D8A0270626502710D8B4B1
:101474003EEF0AF040EF0AF045EF0AF057EC0EF0A9
:10148400050E73EF0AF02A8650EF0AF037EC0EF0DF
:1014940073EF0AF03BEC0EF073EF0AF013C041F067
:1014A40014C042F002D861EF0AF00500FA6E015050
:1014B400FD6E0250FE6E0350FF6EFA501200010AD8
:1014C400D8B44CEF0AF0030AD8B448EF0AF0010A82
:1014D400D8B448EF0AF0070AD8B44CEF0AF04CEF3E
:1014E4000AF01200426E000E436E4250DBEC09F02B
:1014F4000009D8B480EF0AF082EF0AF077EF0AF01F
:10150400D40E3C6E190E3D6E000E3E6E430E3F6EC1
:10151400406AB0EC0DF0410E366E376A000E396E3B
:10152400010E386E56EC0DF0000E3C6E000E3D6E52
:10153400000E3E6E000E3F6E000E406E94EC0DF0F9
:1015440033EC0EF01AEC0DF0E806D8B4ACEF0AF068
:10155400AEEF0AF0A4EF0AF043501200000E3B6E07
:10156400000E3A6E38503910D8B4BBEF0AF0BDEF14
:101574000AF0E5EF0AF0010E3C6EC5EF0AF0D890D0
:10158400383639363C2A39AECAEF0AF0CCEF0AF0C5
:10159400C1EF0AF0D8903A363B363850365C3950B1
:1015A4003758D8A0D8EF0AF0DAEF0AF0DFEF0AF0E4
:1015B4003850365E3950375A3A80D89039323832FA
:1015C4003C2ECCEF0AF03AC036F03BC037F01200A4
:1015D4003B6E365037103810D8B4F3EF0AF0F5EFFD
:1015E4000AF00DEF0BF03B50030DF350010FD96ED1
:1015F400DA6A36C0DEFF37C0DEFF38C0DEFF3B509C
:10160400020DF350130FD96EDA6A39C0DEFF3AC007
:10161400DDFF21EF0BF03B50030DF350010FD96EAA
:10162400DA6A060EDE6E1D0EDE6E000EDE6E3B50B6
:10163400020DF350130FD96EDA6ADE6ADD6A120006
:10164400000E826E000E836E000E846E8768BF0EDD
:10165400886EEF0E896EEF0E0F011C6F390E146F3A
:101664000C69000E286F000E136F000E0B6F000E36
:101674001B6F000E0A6F000E126F000E1A6F0969BD
:1016840011691969086910691869080E256F0A0E2D
:101694000E018B6F110EEB6F0B0EF06F120EEC6FD1
:1016A4000F0E886F090E8A6F12002A8667EF0BF0FF
:1016B40047EC0EF08AEF0BF062EC0EF0030E8AEFAB
:1016C4000BF043EC0EF08AEF0BF013C041F014C0A2
:1016D40042F002D878EF0BF00500FA6E0150FD6E6F
:1016E4000250FE6E0350FF6EFA501200010AD8B485
:1016F40063EF0BF0030AD8B45AEF0BF0010AD8B425
:101704005AEF0BF0070AD8B45EEF0BF063EF0BF05F
:1017140012003F504010D8B492EF0BF094EF0BF04E
:10172400B8EF0BF0010E416E9CEF0BF0D8903F36F2
:101734004036412A40AEA1EF0BF0A3EF0BF098EF37
:101744000BF03F503D5C40503E58D8A0ACEF0BF03E
:10175400AEEF0BF0B2EF0BF03F503D5E40503E5AFF
:10176400D89040323F32412EA3EF0BF03DC03DF004
:101774003EC03EF012007AEC0EF02AA0C4EF0BF04B
:10178400C6EF0BF0D2EF0BF0E1EC0DF00009D8B48A
:10179400CEEF0BF0D0EF0BF0D2EF0BF00F0E286E64
:1017A4002850030DF350010F396E39C0F6FF0F0EA8
:1017B400F76E000EF86E02D8EDEF0BF00500FA6E2E
:1017C4000900F550FD6E0900F550FE6E0900F55054
:1017D400FF6EFA501200286E12002A90020E296E33
:1017E400FCEF0BF047EC0EF019EF0CF043EC0EF0AD
:1017F40019EF0CF017C041F018C042F020EE07F0CA
:1018040002D80FEF0CF00500FA6EDE50FD6EDE50CC
:10181400FE6EDE50FF6EFA501200020AD8B4F4EFE6
:101824000BF0010AD8B4F4EF0BF0F8EF0BF0120050
:10183400080E0E019A6F900E986F240E996F190E70
:10184400966F000E976F000E0001696F000E6A6FAD
:10185400000E6B6F03EC0EF0000E0001696F000EBA
:101864006A6F000E6B6FFCEC0DF0000E0001696FE7
:10187400000E6A6F000E6B6F0AEC0EF0000E356EF0
:10188400120020EE02F04150D9264250DA22DF50F5
:10189400436E43C036F0376A41C0D9FF42C0DAFF15
:1018A400DECF38F0DDCF39F056EC0DF0000E3C6E93
:1018B400000E3D6E000E3E6E000E3F6E000E406E3A
:1018C400B0EC0DF0020E12003A6E010E3B6E2AB21D
:1018D4006EEF0CF070EF0CF085EF0CF02A82000E26
:1018E4003B6E3A50D8B479EF0CF07BEF0CF07FEFFD
:1018F4000CF0010E286E81EF0CF0020E286E71ECD4
:101904000EF0A2EC0DF03B5012000E01C99357509B
:1019140058105910D8B491EF0CF093EF0CF0A0EFDD
:101924000CF002D8A0EF0CF00500FA6E5750FD6ED3
:101934005850FE6E5950FF6EFA5012001200010EFC
:10194400BE6E200EBD6E000EBF6EF90EBB6E000E95
:10195400BA6E0E01C993C1830A0E0001696F1D0E90
:101964006A6F000E6B6FF5EC0DF0800EBC6E12000A
:1019740041C036F042C037F0000E396E010E386EA9
:1019840056EC0DF0000E3C6E000E3D6E000E3E6EE9
:10199400000E3F6E000E406EB0EC0DF0040E12000F
:1019A40041C036F042C037F0000E396E020E386E78
:1019B40056EC0DF0000E3C6E000E3D6E000E3E6EB9
:1019C400000E3F6E000E406EB0EC0DF0020E1200E1
:1019D40041C036F042C037F0000E396E010E386E49
:1019E40056EC0DF0000E3C6E000E3D6E000E3E6E89
:1019F400000E3F6E000E406EB0EC0DF0020E1200B1
:101A040041C036F042C037F0000E396E020E386E17
:101A140056EC0DF0000E3C6E000E3D6E000E3E6E58
:101A2400000E3F6E000E406EB0EC0DF0040E12007E
:101A3400010E366E2AB221EF0DF023EF0DF02DEFDB
:101A44000DF02A9423687AEC0EF074EC0EF077EC27
:101A54000EF029C036F036501200000E366E0E011C
:101A6400C8AD37EF0DF039EF0DF042EF0DF099AB43
:101A74003EEF0DF040EF0DF042EF0DF0010E366E2B
:101A8400365012000E0191BB4AEF0DF04CEF0DF0F1
:101A940055EF0DF0800E906F080E916F000E926F4F
:101AA400030E8E6F918B12002AA65BEF0DF05DEF93
:101AB4000DF066EF0DF036C024F037C025F038C0C5
:101AC40026F039C027F02A9612000001716B706B62
:101AD4006F6B6E6B00EE01F0350EEE6AE806FDE109
:101AE4005A905A9200019FEF08F07FEC0EF086ECBA
:101AF4000DF0D6EC0DF022EC0BF0BEEC0DF0A1ECE9
:101B04000CF01AEC0CF01200000E0E01DC6F000E4B
:101B1400DD6F000EDE6F000EDF6F000EE06F000E53
:101B2400E16F12003CC036F03DC037F03EC038F0E3
:101B34003FC039F040C03AF0020EEAEC0AF012005D
:101B4400A8EF0DF0ECEC0DF0BDEC0BF02AB2ADEF0C
:101B54000DF0AFEF0DF0A4EF0DF012003CC036F025
:101B64003DC037F03EC038F03FC039F040C03AF0D5
:101B7400000EEAEC0AF01200620E0E01D36F000EA2
:101B8400D56F000ED76F020ED96F000ED86F1200FA
:101B9400366E0E01C8ADD1EF0DF0D3EF0DF0CBEFE3
:101BA4000DF036C095FE1200800E0E01906F080EE7
:101BB400916F000E926F030E8E6F919B12000E01B7
:101BC40092BDE7EF0DF0EAEF0DF0010EEBEF0DF033
:101BD400000E12000E01C8A5F2EF0DF0F4EF0DF0A7
:101BE400ECEF0DF0120069C057F06AC058F06BC0FA
:101BF40059F0120069C063F06AC064F06BC065F00C
:101C0400120069C066F06AC067F06BC068F0120029
:101C140069C060F06AC061F06BC062F012002A8093
:101C24002350232453EC0EF0030E12002A80D88094
:101C3400233453EC0EF0050E1200376E3750CAEC05
:101C44000DF012002A92000E296E0E0E12002A9038
:101C540068EC0EF0040E12002A92000E296E0E0E8D
:101C64001200000E66EC0CF012005BEC0EF0090E94
:101C740012005BEC0EF00A0E120057EC0EF0050E8B
:101C840012006BEC0EF0000E12006EEC0EF0010E62
:101C940012006EEC0EF0020E12006EEC0EF0010E4D
:101CA4001200366E36C08DFE12000E01929B928990
:101CB40012000E01928B928912007DEC0EF012003C
:101CC4000E01C88512000E018D5112000E0192877B
:101CD40012000E01928512000E01928312000E0171
:101CE400928112000E01C09512000E01919B120008
:101CF4000E01C8951200BC8E1200F29A1200050E55
:081D04001200010E1200120092
:020000040030CA
:0C000000ECFFFFFF9FFFFFFFFFFFFFFF73
:00000001FF
