:0400000097EF00F086
:100008005B82FACF01F0FBCF02F0D9CF03F0DACF51
:1000180004F0F2AC12EF00F014EF00F08DEF00F0F6
:100028000E01C0AD1AEF00F01CEF00F033EF00F046
:10003800C8AD21EF00F023EF00F033EF00F002D855
:1000480031EF00F00500FA6E0001F951FD6EFA512A
:10005800FE6EFB51FF6EFA5012008DEF00F0C0AF3C
:1000680038EF00F03AEF00F051EF00F0C8AF3FEF83
:1000780000F041EF00F051EF00F002D84FEF00F030
:100088000500FA6E0001F651FD6EF751FE6EF8514B
:10009800FF6EFA5012008DEF00F0C0A956EF00F085
:1000A80058EF00F06FEF00F0C8A95DEF00F05FEFC8
:1000B80000F06FEF00F002D86DEF00F00500FA6E67
:1000C8000001F351FD6EF451FE6EF551FF6EFA50CA
:1000D80012008DEF00F0C0AB74EF00F076EF00F087
:1000E8008DEF00F0C8AB7BEF00F07DEF00F08DEFF7
:1000F80000F002D88BEF00F00500FA6E0001F05115
:10010800FD6EF151FE6EF251FF6EFA5012008DEF46
:1001180000F004C0DAFF03C0D9FF02C0FBFF01C032
:0A012800FAFF5B921100D7EF0DF013
:0B1000000025730D0A0025642000008D
:10100C00000E286E000E276E2250D96EDA6ADFCFE2
:10101C00F6FF100EF76E000EF86E0800F550250A5C
:10102C00D8A41BEF08F01DEF08F082EF09F0225056
:10103C00D96EDA6ADF2A000E496E000E486E48C07F
:10104C004CF04A684B682250D96EDA6ADF502A6E2F
:10105C002AC0F6FF100EF76E000EF86E0800F55061
:10106C00640AD8B43CEF08F03EEF08F04EEF08F0FD
:10107C002AC0F6FF100EF76E000EF86E0800F55041
:10108C00690AD8A44CEF08F04EEF08F0E3EF08F033
:10109C0023C0D9FF24C0DAFF020EDF26DF5CD96E35
:1010AC00DA6ADECF2BF0DECF2CF02250D96EDA6A62
:1010BC002A28DF6E200E2F6E2CBE67EF08F06AEF29
:1010CC0008F0010E6BEF08F0000E296E2F06000ED3
:1010DC002F24D96EDA6A010EDA222BC017F02CC03D
:1010EC0018F0000E1A6E0A0E196E32EC0BF017C0C7
:1010FC001DF018C01EF0BDEC0DF01D50300FDF6E52
:10110C002BC005F02CC006F0000E086E0A0E076E00
:10111C001FEC0AF005C02BF006C02CF0274A282A39
:10112C002B502C10D8B49DEF08F09FEF08F0A7EFD0
:10113C0008F02F50D8A4A5EF08F0A7EF08F06CEF3B
:10114C0008F02F50D8B4ADEF08F0AFEF08F0D4EFA3
:10115C0008F02950D8B4B5EF08F0B7EF08F0D4EF89
:10116C0008F02F06000E2F24D96EDA6A010EDA224F
:10117C002D0EDF6E274A282AD4EF08F0000E2F24FC
:10118C00D96EDA6A010EDA22DF50256E2550076E11
:10119C00086A21C009F089EC0BF02F2A200E2F18B9
:1011AC00D8A4DBEF08F0DDEF08F0C4EF08F027C09F
:1011BC0021F028C022F09BEF09F0296A2250D96E49
:1011CC00DA6ADFCFF6FF100EF76E000EF86E08002D
:1011DC00F550730AD8A4F5EF08F0F7EF08F0FFEF1D
:1011EC0008F02250D96EDA6ADF2A010E296E47EF19
:1011FC0009F02250D96EDA6ADFCFF6FF100EF76EC7
:10120C00000EF86E0800F5506C0AD8A410EF09F027
:10121C0012EF09F047EF09F02250D96EDA6ADF506D
:10122C00256E010E252625C0F6FF100EF76E000E5A
:10123C00F86E0800F5506C0AD8A427EF09F029EFD6
:10124C0009F047EF09F02250D96EDA6ADF50256EAB
:10125C00020E252625C0F6FF100EF76E000EF86E56
:10126C000800F550730AD8A43EEF09F040EF09F0DE
:10127C0047EF09F02250D96EDA6A030EDF26FBEF36
:10128C0008F02950D8B44DEF09F04FEF09F078EF82
:10129C0009F023C0D9FF24C0DAFF020EDF26DF5C81
:1012AC00D96EDA6ADECF26F06BEF09F02650D96ED4
:1012BC00DA6ADF50256E2550076E086A21C009F0E6
:1012CC0089EC0BF0274A282A262A2650D96EDA6A8E
:1012DC00DF50D8A474EF09F076EF09F05CEF09F059
:1012EC00DDEF08F02250D96EDA6ADF2A000E226E8A
:1012FC00000E216E9BEF09F02250D96EDA6ADFCF17
:10130C00F6FF100EF76E000EF86E0800F550076E23
:10131C00086A21C009F089EC0BF02250D96EDA6A08
:10132C00DF2A000E226E010E216E1200000E00014B
:10133C00AC6F000EAB6F5FEC0CF011C017F012C06D
:10134C0018F0000E1A6E640E196E32EC0BF00001E0
:10135C00AB51020DF350A10FD96EDA6A17C0DEFF44
:10136C0018C0DDFFAB4BAC2BACBFC6EF09F0AC51DA
:10137C0009E1050EAB5DD8A0C6EF09F0C8EF09F086
:10138C00A1EF09F0000EAE6F000EAD6F000EB06F46
:10139C00000EAF6FAD51610F346E060E356EAF514E
:1013AC00020DF350A10FD96EDA6ADECF36F0DDCF25
:1013BC0037F041EC0DF034500001AD273550AE2321
:1013CC00AF4BB02BB0BFF4EF09F0B05109E1050EF3
:1013DC00AF5DD8A0F4EF09F0F6EF09F0D0EF09F00B
:1013EC00AEBF01EF0AF0AE5108E1AD05D8A001EF98
:1013FC000AF003EF0AF00CEF0AF0ADC060F0FF0E3C
:10140C0060276051610FD96EDA6ADF6A010E346EA3
:10141C00610E356E366A2DEC0EF08488310E0001AB
:10142C00606FB20EE82EFED7602FFCD700008498B8
:10143C0012000A6A08BE27EF0AF025EF0AF02DEF1A
:10144C000AF0076C081ED8B0082A010E0A6E06BEF8
:10145C0034EF0AF032EF0AF03AEF0AF0056C061E90
:10146C00D8B0062A010E0A1A000E0C6E000E0B6E76
:10147C0007500810D8B445EF0AF047EF0AF06FEFA9
:10148C000AF0010E096E4FEF0AF0D89007360836B5
:10149C00092A08AE54EF0AF056EF0AF04BEF0AF0A7
:1014AC00D8900B360C360750055C08500658D8A05F
:1014BC0062EF0AF064EF0AF069EF0AF00750055E7C
:1014CC000850065A0B80D89008320732092E56EF76
:1014DC000AF00A50D8B475EF0AF077EF0AF07BEFF8
:1014EC000AF00B6C0C1ED8B00C2A0BC005F00CC00B
:1014FC0006F012005750C90FD96EDA6ADF6A0E0176
:10150C0098A58BEF0AF08DEF0AF0A0EF0AF0575078
:10151C00C90FD96EDA6A0001DF8202D8A0EF0AF097
:10152C000500FA6EED51FD6EEE51FE6EEF51FF6E41
:10153C00FA5012000E0198A3A6EF0AF0A8EF0AF0D9
:10154C00BBEF0AF05750C90FD96EDA6A0001DF847D
:10155C0002D8BBEF0AF00500FA6EEA51FD6EEB51B2
:10156C00FE6EEC51FF6EFA5012005750C90FD96E37
:10157C00DA6ADF50D8B4C5EF0AF0C7EF0AF0D7EF3C
:10158C000AF002D8D5EF0AF00500FA6E0001E75117
:10159C00FD6EE851FE6EE951FF6EFA501200D9EF64
:1015AC000AF0EEEC0DF012005050B10FD96EDA6A61
:1015BC00DF6A9CA4E4EF0AF0E6EF0AF0F9EF0AF018
:1015CC005050B10FD96EDA6A0001DF8202D8F9EF00
:1015DC000AF00500FA6EE451FD6EE551FE6EE6511F
:1015EC00FF6EFA5012009CA2FEEF0AF000EF0BF017
:1015FC0013EF0BF05050B10FD96EDA6A0001DF8493
:10160C0002D813EF0BF00500FA6EE151FD6EE251BA
:10161C00FE6EE351FF6EFA5012005050B10FD96EAE
:10162C00DA6ADF50D8B41DEF0BF01FEF0BF02FEF81
:10163C000BF002D82DEF0BF00500FA6E01012051D2
:10164C00FD6E2151FE6E2251FF6EFA50120031EFE9
:10165C000BF000EC0EF012001C6A18BE3AEF0BF007
:10166C0038EF0BF040EF0BF0176C181ED8B0182A9F
:10167C00010E1C6E1ABE47EF0BF045EF0BF04BEF53
:10168C000BF0196C1A1ED8B01A2A19501A10D8B4AB
:10169C0052EF0BF054EF0BF078EF0BF0010E1B6ECA
:1016AC005CEF0BF0D89019361A361B2A1AAE61EF84
:1016BC000BF063EF0BF058EF0BF01950175C1A504E
:1016CC001858D8A06CEF0BF06EEF0BF072EF0BF01C
:1016DC001950175E1A50185AD8901A3219321B2EFC
:1016EC0063EF0BF01C50D8B47EEF0BF080EF0BF0D7
:1016FC0084EF0BF0176C181ED8B0182A17C017F00F
:10170C0018C018F012000950D8B48FEF0BF091EFFD
:10171C000BF099EF0BF00950D8A497EF0BF099EF61
:10172C000BF09EEF0BF007508FEC0EF0DDEF0BF093
:10173C000950D96EDA6A090ED926DE50DE10D8B4FB
:10174C00AAEF0BF0ACEF0BF0C5EF0BF00950D96E14
:10175C00DA6A090ED9260950E16EE26A020EE12618
:10176C00DE50E65CE650800A0E6EDE50800A0E58A3
:10177C00D8B0C3EF0BF0C5EF0BF0DDEF0BF0095059
:10178C00D96EDA6A020ED926DF500A6E0950D96E6C
:10179C00DA6ADF500A24D96EDA6A07C0DFFF095013
:1017AC00D96EDA6A020ED926DE2A000EDD2212006C
:1017BC000E01C09F000E056E150E066E000E076E14
:1017CC0050EC0EF00E01C09DC60E056E1A0E066E84
:1017DC00000E076E49EC0EF0080E0E019A6F900E7B
:1017EC00986F240E996F190E966F976B460E056EB7
:1017FC001D0E066E000E076E5EEC0EF0280E056ECA
:10180C001D0E066E000E076E57EC0EF0300E056EB8
:10181C001D0E066E000E076E65EC0EF0546A5A6AC9
:10182C00596A080E586E576A566A556A0E01C08F6F
:10183C0012000E01C09BB40E056E150E066E000E46
:10184C00076E73EC0EF00E01C099040E056E1B0EA4
:10185C00066E000E076E6CEC0EF0080E9E6E900E6F
:10186C009C6E240E9D6E190E9A6E9B6A480E056E28
:10187C001D0E066E000E076E81EC0EF0360E056E18
:10188C001D0E066E000E076E7AEC0EF03C0E056E09
:10189C001D0E066E000E076E88EC0EF04D6A536A34
:1018AC00526A080E516E506A4F6A4E6A0E01C08B16
:1018BC001200FCC005F0FDC006F0FEC007F0FFC032
:1018CC0008F02D0E096E7F0E0A6E950E0B6E4C0EE7
:1018DC000C6E96EC0CF0010E05240001FC6F000E52
:1018EC000620FD6F000E0720FE6F000E0820FF6F14
:1018FC00FCC013F0FDC014F0FEC015F0FFC016F0D4
:10190C00120E8EEF0CF0D8901632153214321332B0
:10191C00E82E89EF0CF013C011F014C012F0120075
:10192C00000E0D6E000E0E6E000E0F6E000E106E81
:10193C0005A0A3EF0CF0A5EF0CF0ADEF0CF00950E7
:10194C000D260A500E220B500F220C501022D8904C
:10195C0009360A360B360C36D89008320732063266
:10196C0005320550061007100810D8A4C0EF0CF073
:10197C00C2EF0CF09EEF0CF00DC005F00EC006F09F
:10198C000FC007F010C008F0120031C033F0000E89
:10199C00476E000E466EE0EF0CF030C021F0330EB7
:1019AC00226E32C023F0246A06EC08F02150462641
:1019BC002250472233C0F6FF100EF76E000EF86E61
:1019CC000800F5500009D8A4EEEF0CF0F0EF0CF085
:1019DC00D3EF0CF046C030F047C031F01200056E6A
:1019EC005150D8B4FCEF0CF0FEEF0CF0F6EF0CF00D
:1019FC000E01C0B904EF0DF006EF0DF00AEF0DF07B
:101A0C0005C099FF1CEF0DF0C0995350C10FD96E52
:101A1C00DA6A05C0DFFF532A070E536418EF0DF086
:101A2C001AEF0DF01BEF0DF0536A5106C08912002E
:101A3C00826A836A846A87688868AF0E896E0F0E23
:101A4C000F011C6FBF0E146FFE0E0C6F286B136B07
:101A5C000B6B1B6B0A6B126B1A6B09691169196999
:101A6C000869106918690F0E256F170E0E01B06FFB
:101A7C00090EF86F1200360E3A6E34C03BF0000EB1
:101A8C003E6E000E3D6E000E456E000E446E3B0E1B
:101A9C00306E35C031F03A0E326ECBEC0CF030C0FB
:101AAC0038F031C039F034503D24D96EDA6ADF6A2F
:101ABC0038C034F039C035F01200080E586069EFA8
:101ACC000DF06BEF0DF07FEF0DF05950D90FD96E73
:101ADC00DA6ADF500E01956F592A070E596479EFB7
:101AEC000DF07BEF0DF07CEF0DF0596A582A81EF69
:101AFC000DF00E01C09D1200080E516088EF0DF024
:101B0C008AEF0DF09DEF0DF05250C10FD96EDA6ACD
:101B1C00DF50996E522A070E526497EF0DF099EF31
:101B2C000DF09AEF0DF0526A512A9FEF0DF00E0155
:101B3C00C099120020EC0EF0E20E066E400E056EFF
:101B4C0012EC0EF0F28EF28C9CEC09F0030E0101FB
:101B5C00246F8A0E236F550EE82EFED7232FFCD749
:101B6C00242FFAD700D0AAEF0DF097EF00F01EBE8D
:101B7C00C2EF0DF0C4EF0DF0CAEF0DF01DC01DF05B
:101B8C001EC01EF0D6EF0DF01DC01FF01EC020F0C1
:101B9C001F1E201E1F4A202A1FC01DF020C01EF031
:101BAC00120001EE00F0200EEE6AE806FDE100EEF8
:101BBC00B1F0300EEE6AE806FDE100EE46F0150ECF
:101BCC00EE6AE806FDE15B905B920001A0EF0DF080
:101BDC005750D10FD96EDA6A94CEDFFF572A070E11
:101BEC005764FBEF0DF0FDEF0DF0FEEF0DF0576AB3
:101BFC00552A12005050B90FD96EDA6A98CFDFFF10
:101C0C00502A070E50640DEF0EF00FEF0EF010EF90
:101C1C000EF0506A4E2A1200FF0E0524076EFF0EBE
:101C2C000620086E07C0FCF008C0FDF00001FE6B3A
:101C3C00FF6B1200A1EC0EF041EC0EF01EEC0DF05F
:101C4C0038EC0EF01FEC0CF0DEEC0BF01200350E45
:101C5C00376E000E306E34C031F0370E326ECBEC76
:101C6C000CF01200620E0E01D36FD56BD76B020E07
:101C7C00D96FD86B12000E01DC6BDD6BDE6BDF6B8A
:101C8C00E06BE16B120005C0F9F006C0FAF007C07A
:101C9C00FBF0120005C0F6F006C0F7F007C0F8F034
:101CAC00120005C0EAF006C0EBF007C0ECF0120021
:101CBC0005C0EDF006C0EEF007C0EFF0120005C055
:101CCC00E7F006C0E8F007C0E9F0120005C0F3F039
:101CDC0006C0F4F007C0F5F0120005C0F0F006C025
:101CEC00F1F007C0F2F0120005C0E1F006C0E2F01E
:101CFC0007C0E3F0120005C0E4F006C0E5F007C031
:101D0C00E6F0120005C020F106C021F107C022F157
:101D1C001200066E0650F5EC0CF012000E019899AC
:101D2C0098891200EEEC0DF012009C989C88120021
:0E1D3C0000EC0EF01200F29A120012001200DB
:020000040030CA
:0C000000ECFFFFFF9FFFFFFFFFFFFFFF73
:00000001FF
